:020000040100F9
:20000000000001203D030001A9030001A9030001A9030001A9030001A9030001000000001D
:20002000000000000000000000000000A9030001A903000100000000A9030001FD4D00016E
:20004000A9030001A9030001A9030001A9030001A9030001A9030001A9030001A903000138
:20006000A9030001A9030001A9030001A9030001A9030001A9030001A9030001A903000118
:20008000A9030001A9030001A9030001A9030001A9030001A9030001A9030001A9030001F8
:2000A000A9030001A9030001A9030001A9030001A9030001A9030001A9030001A9030001D8
:2000C000A9030001A9030001A9030001A9030001A9030001A9030001A9030001A9030001B8
:2000E000A903000189330001A9030001A9030001A9030001A9030001A9030001A903000188
:20010000A9030001A9030001A9030001A9030001A9030001A9030001A9030001A903000177
:20012000A9030001A9030001A9030001A9030001A9030001A9030001A9030001A903000157
:20014000A9030001A9030001A9030001A9030001A9030001A9030001A9030001A903000137
:20016000A9030001A9030001A9030001A9030001A9030001A9030001A9030001A903000117
:20018000A9030001A9030001A9030001A9030001A9030001A9030001A9030001A9030001F7
:2001A000A9030001A9030001A9030001A9030001A9030001A9030001A9030001A9030001D7
:2001C000A9030001A9030001A9030001A9030001A9030001AD4F0001A9030001A903000167
:2001E000A9030001A9030001A9030001A9030001A9030001A9030001A9030001A903000197
:20020000A9030001A9030001A9030001A9030001A9030001A9030001A9030001A903000176
:20022000A9030001A9030001A9030001A9030001A9030001A9030001A9030001A903000156
:20024000A9030001A903000115320001A9030001A9030001A9030001A9030001A90300019B
:20026000A9030001A9030001A9030001A9030001A9030001A9030001A9030001A903000116
:20028000A9030001A9030001A9030001A9030001A9030001A9030001A9030001A9030001F6
:2002A000A9030001A9030001A9030001A9030001A9030001A9030001A9030001A9030001D6
:2002C000A9030001A9030001A9030001A9030001A9030001A9030001A9030001A9030001B6
:2002E000A9030001A9030001A9030001A9030001A9030001A9030001A9030001A903000196
:20030000A9030001A9030001A9030001A9030001A9030001A9030001A9030001A903000175
:20032000A9030001A9030001A9030001A9030001A9030001A9030001FFFFFFFF72B64FF04C
:2003400000014FF000024FF000034FF000044FF000054FF000064FF00007B846B946BA460A
:20036000BB46BC460A480B4901600B4885460B4A094C002301E013600432A242FBD30848FC
:2003800080470848804762B603F0AEF9FEE7000008ED00E0000000010000012000FC0020D5
:2003A00015340001CD330001FFF7FEBF70B54FF0FF0C4CF4E06C1CEA11541DBF1CEA13558F
:2003C00094EA0C0F95EA0C0F00F0DEF82C4481EA030621EA4C5123EA4C5350EA013518BFA5
:2003E00052EA033541F4801143F4801338D0A0FB02CE4FF00005E1FB02E506F00042E0FB6C
:2004000003E54FF00006E1FB03569CF0000F18BF4EF0010EA4F1FF04B6F5007F64F54074EC
:2004200004D25FEA4E0E6D4146EB060642EAC62141EA55514FEAC52040EA5E504FEACE2E47
:20044000B4F1FD0C88BFBCF5E06F1ED8BEF1004F08BF5FEA500E50F1000041EB045170BD56
:2004600006F0004646EA010140EA020081EA0301B4EB5C04C2BFD4EB0C0541EA045170BD76
:2004800041F480114FF0000E013C00F3AB8014F1360FDEBF002001F0004170BDC4F10004CF
:2004A000203C35DA0C341BDC04F11404C4F1200500FA05F320FA04F001FA05F240EA020095
:2004C00001F0004221F0004110EBD37021FA04F642EB06015EEA430E08BF20EAD37070BD36
:2004E000C4F10C04C4F1200500FA04F320FA05F001FA04F240EA020001F0004110EBD370D0
:2005000041F100015EEA430E08BF20EAD37070BDC4F1200500FA05F24EEA020E20FA04F3AA
:2005200001FA05F243EA020321FA04F001F0004121FA04F220EA020000EBD3705EEA430E72
:2005400008BF20EAD37070BD94F0000F0FD101F00046400041EB010111F4801F08BF013C9A
:20056000F7D041EA060195F0000F18BF704703F00046520043EB030313F4801F08BF013DF6
:20058000F7D043EA0603704794EA0C0F0CEA135518BF95EA0C0F0CD050EA410618BF52EACF
:2005A0004306D1D181EA030101F000414FF0000070BD50EA410606BF1046194652EA4306C3
:2005C00019D094EA0C0F02D150EA013613D195EA0C0F05D152EA03361CBF104619460AD121
:2005E00081EA030101F0004141F0FE4141F470014FF0000070BD41F0FE4141F4780170BD8D
:2006000081F0004102E000BF83F0004330B54FEA41044FEA430594EA050F08BF90EA020F09
:200620001FBF54EA000C55EA020C7FEA645C7FEA655C00F0E2804FEA5454D4EB5555B8BFDF
:200640006D420CDD2C4480EA020281EA030382EA000083EA010180EA020281EA0303362D96
:2006600088BF30BD11F0004F4FEA01314FF4801C4CEA113102D0404261EB410113F0004F00
:200680004FEA03334CEA133302D0524263EB430394EA050F00F0A780A4F10104D5F1200E3E
:2006A0000DDB02FA0EFC22FA05F2801841F1000103FA0EF2801843FA05F359410EE0A5F186
:2006C00020050EF1200E012A03FA0EFC28BF4CF0020C43FA05F3C01851EBE37101F0004592
:2006E00007D54FF0000EDCF1000C7EEB00006EEB0101B1F5801F1BD3B1F5001F0CD349080C
:200700005FEA30004FEA3C0C04F101044FEA445212F5800F80F09A80BCF1004F08BF5FEAEA
:20072000500C50F1000041EB045141EA050130BD5FEA4C0C404141EB0101013C28BFB1F563
:20074000801FE9D291F0000F04BF01460020B1FA81F308BF2033A3F10B03B3F120020CDAFE
:200760000C3208DD02F1140CC2F10C0201FA0CF021FA02F10CE002F11402D8BFC2F1200C12
:2007800001FA02F120FA0CFCDCBF41EA0C019040E41AA2BF01EB0451294330BD6FEA04044C
:2007A0001F3C1CDA0C340EDC04F11404C4F1200220FA04F001FA02F340EA030021FA04F39D
:2007C00045EA030130BDC4F10C04C4F1200220FA02F001FA04F340EA0300294630BD21FABB
:2007E00004F0294630BD94F0000F83F4801306BF81F480110134013D4EE77FEA645C18BF99
:200800007FEA655C29D094EA050F08BF90EA020F05D054EA000C04BF1946104630BD91EAD2
:20082000030F1EBF0021002030BD5FEA545C05D14000494128BF41F0004130BD14F580042F
:200840003CBF01F5801130BD01F0004545F0FE4141F470014FF0000030BD7FEA645C1ABFAB
:20086000194610467FEA655C1CBF0B46024650EA013406BF52EA033591EA030F41F400219A
:2008800030BD00BF90F0000F04BF0021704730B54FF4806404F132044FF000054FF00001C7
:2008A00050E700BF90F0000F04BF0021704730B54FF4806404F1320410F0004548BF404213
:2008C0004FF000013EE700BF42004FEAE2014FEA31014FEA02701FBF12F07F4393F07F4F8D
:2008E00081F06051704732F07F4208BF704793F07F4F04BF41F40021704730B54FF46074A1
:2009000001F0004521F000411CE700BF50EA010208BF704730B54FF000050AE050EA010282
:2009200008BF704730B511F0004502D5404261EB41014FF4806404F132045FEA915C3FF46C
:20094000D8AE4FF003025FEADC0C18BF03325FEADC0C18BF033202EBDC02C2F1200300FAB8
:2009600003FC20FA02F001FA03FE40EA0E0021FA02F11444BDE600BF4FF0FF3C06E000BF51
:200980004FF0010C02E000BF4FF0010C4DF804CD4FEA410C7FEA6C5C4FEA430C18BF7FEA89
:2009A0006C5C1BD001B050EA410C0CBF52EA430C91EA030F02BF90EA020F0020704710F145
:2009C000000F91EA030F58BF994208BF90422CBFD8176FEAE37040F0010070474FEA410CFC
:2009E0007FEA6C5C02D150EA013C07D14FEA430C7FEA6C5CD6D152EA033CD3D05DF8040BC2
:200A0000704700BF8446104662468C461946634600E000BF01B5FFF7B7FF002848BF10F18D
:200A2000000F01BD4DF808EDFFF7F4FF0CBF012000205DF808FB00BF4DF808EDFFF7EAFF8A
:200A400034BF012000205DF808FB00BF4DF808EDFFF7E0FF94BF012000205DF808FB00BF91
:200A60004DF808EDFFF7CEFF94BF012000205DF808FB00BF4DF808EDFFF7C4FF34BF0120C7
:200A800000205DF808FB00BF4FEA410212F5001215D211D56FF47873B3EB625212D94FEAF9
:200AA000C12343F0004343EA505311F0004F23FA02F018BF404270474FF00000704750EA6D
:200AC000013005D111F0004008BF6FF0004070474FF00000704700BF4A0011D212F50012B6
:200AE00011D20DD56FF47873B3EB62520ED44FEAC12343F0004343EA505323FA02F0704786
:200B00004FF00000704750EA013002D14FF0FF3070474FF000007047F0B58C469646C0F380
:200B20008F07BB00B0EB870F0BD21A1A0ABB15460421AA4221D3CEF80070CCF800100020D3
:200B4000F0BDC21AF2E7B0FBF3F403FB1404AC4202D2374619462546002DEAD00133202B1C
:200B6000E7D8B0FBF3F606FB03F4A042EBD2241AEDE7154604210523F1E70220E0E7436964
:200B800013F400031ED010B4C161836943F4002383610024234694422CBF00210121002B91
:200BA00018BF002121B1436903F480030134F2E7826922F40022826113B1002010BC7047CA
:200BC0000220FBE70BB1002070470220704700002D4B53F8202000294CD00B460968002972
:200BE0004AD0506910F4000F48D05868002847D010B4946A14F0800F27D0D46A04F00F0467
:200C0000C4F11004A0420FD200211AE018680078D0611868013018605868013858600131F8
:200C2000C9B28C42F2D818E00021FAE718680078D061186801301860586801385860013172
:200C4000C9B258688142F1D307E00978D1611968013119605968013959605B6893B993694D
:200C600023F400039361936943F480039361002010BC704704207047042070470420704788
:200C8000002070470020F3E7A0530001074B53F820305A6912F4800F05D09A6922F49002CA
:200CA0009A61002070470420704700BFA0530001084B53F82020536913F4801F07D0516903
:200CC000054B0B4043F480135361002070470420704700BFA05300010000E03F184B53F8C9
:200CE000200031B30A460B682BB3416911F4001F23D000215160816A11F0080F12D030B4F3
:200D0000C56AC5F305650023AB4208D2047F1168CC545168013151600133DBB2F4E7002024
:200D200030BC7047017F19705368013353600020704704207047042070470420704700BF3E
:200D4000A0530001154B53F82030586910F4002000D001205A6912F4802F01D040F0020053
:200D60005A6912F4003F01D040F004005A6912F4803F01D040F008005A6912F0080F01D028
:200D800040F010005A6912F0040F01D040F020005969034A0A4002435A617047A053000116
:200DA0000000E03F10B402460078254B53F82030087898B1986940F0706098614868506161
:200DC000087A80B1C86810B3986940F400109861C868506008699061002009E0986920F0D3
:200DE00070609861ECE7986920F40010986100200C7D8CB18C6964B19C6944F400049C610B
:200E00008C699460CC69D4610C6A146208E00420EEE740F0040003E09C6924F400049C617D
:200E200091F824403CB19C6944F480149C618B6A536210BC70479A6922F480129A61F8E758
:200E4000A0530001F0B58FB005468E4616469C4609AC2D4F0FCF0FC43B68237004AC2B4F1B
:200E60000FCF0FC43B682370294B01AC93E8070003C424F8022B120C2270BEF1000F41D059
:200E80007446EB0F0A2E14BF002303F00103DBB168422D238EF8003001250DF1040C2B4698
:200EA000B0FBF6F206FB120719460133DBB21CF907706754014610468E42F1D99C460022E3
:200EC000E2542F46294616E0BCF1000F04D00DF1240C28460025E2E70DF1100CF9E7B1EB52
:200EE000620F0CD26056ACEB01023A44013AA6566654A05401315A19F1D50132EFE700205C
:200F00000FB0F0BD0120FBE76C5300018053000194530001000000002DE9F04F85B0804696
:200F2000894615469A46604A01AB07CA03C323F8022B120C1A70002D00F0AA802C4656A318
:200F4000D3E9002340464946FFF776FDB8B340464946FFF799FDFFF7A5FC42464B46FFF782
:200F600053FB06460F4642464B4600200021FFF74BFBFFF7B1FD05462D23237001210B46A7
:200F80004A4AA2FB0502D208104602EB8202A5EB420298460133DBB20DF1100C624412F93A
:200FA0000C2C04F808202A460546092AE8D89E4604EB03090022E2548C4608461EE040464C
:200FC0004946FFF789FD0546FFF75CFC02460B4640464946FFF718FB06460F460021CEE73F
:200FE000B0EB620F0ED22556AEEB00026244013A14F902B004F800B0A55401305A18EFD543
:201000000132EDE7002526A1D1E90001554506D823A3D3E90023FFF7C9F90135F6E73246C2
:201020003B46FFF7F3FA00260125564508D200221F4BFFF7BBF905EB85056D000136F4E75C
:20104000FFF74AFD08F102085FFA88F82E2389F80030002201E001321D46524512D2134B03
:20106000A3FB0513DB08092DF5D9B0FBF3F101F1300608F1010504F8086003FB11005FFA51
:2010800085F8E8E7002004F8080005B0BDE8F08F0120FAE7AFF300803A8C30E28E79453E81
:2010A0009A9999999999B93F94530001CDCCCCCC00002440002343618361C361036243624B
:2010C0004374012303747047F0B583B006460C4600230193009302230374C86A0B6C317859
:2010E0003F4A52F8215001AA6946B0FBF3F0FFF713FD002872D1009B013B1B0603F0F8531D
:2011000094F83920D20502F40002134394F83A20520502F40012134394F83320520302F400
:2011200000521343019AC2F30C02134343F4003394F83C20120202F4E06294F830100901DF
:2011400001F010010A4394F83D10890001F004010A4394F83110490001F002010A4394F8B8
:20116000321001F001010A4394F83810890201F4E05194F83400C001C0B2014394F836006F
:20118000C00000F0080001434CF21100084394F83710090401F4702194F8357007F00F0715
:2011A00039432B61A862E96200236B62AA616A6969690C4B0B4013436B61AB6A43F44033AF
:2011C000AB6201237374636C0BB940F6B833F36021463046FFF7E6FD03B0F0BD0220FBE7D6
:2011E000A05300010000E03F032303740278044B53F82220936943F480239361704700BFA9
:20120000A05300012DE9F0410546D1F800804E6802780A4B53F8227000240223B44209D283
:20122000EA6818F804103846FFF7A9FC034608B90134F3E71846BDE8F08100BFA0530001DF
:20124000F8B5044606782F4B53F826309D6915F4001F0CD115F4000F1DD115F4800F2ED156
:2012600015F4801F37D115F0706F3FD1F8BD476839463046FFF732FD3B1E18BF01230028D0
:2012800018BF0023002BE5D0A369002BE2D0394620469847DEE7A76839463046FFF798FC74
:2012A0003B1E18BF0123002818BF0023002BD4D0E369002BD1D0394620469847CDE73046E3
:2012C000FFF7E4FC0028CBD1236A002BC8D0002120469847C4E73046FFF7EAFC0028C2D106
:2012E000636A002BBFD020469847BCE73046FFF729FD01460028B9D06369002BB6D0204612
:201300009847B3E7A05300010EB42DE9F04388B006460FAB53F8044B03930278AD4B53F82A
:2013200022704FF000084546F3E094F901306E2B09D0722B0FD1F2680D213846FFF71FFCB2
:2013400005460234E5E0F2680A213846FFF717FC05460234DDE00234DBE008F10108039B6C
:201360001A1D0392D3F8009007E0F268C9B23846FFF705FC054609F1010999F900100029FB
:20138000F3D10234C5E008F101080398031D039300230A2204A90068FFF754FD70B1023459
:2013A000B7E0F268C9B23846FFF7E9FB054609F1010999F900100029F3D1F0E70DF110099D
:2013C000F7E708F101080398031D0393002310220DEB02010068FFF735FD70B1023498E02D
:2013E000F268C9B23846FFF7CAFB054609F1010999F900100029F3D1F0E70DF11009F7E735
:2014000008F101080398031D0393012310220DEB02010068FFF716FD70B1023479E0F268AD
:20142000C9B23846FFF7ABFB054609F1010999F900100029F3D1F0E70DF11009F7E7A37852
:20144000303BDBB2E11C94F90320662A01D00C465FE018F0010F02D0039A04320392039907
:201460000A1D03920868009001F1080203924A68019204AADDE90001FFF74EFD80B10434BB
:201480004FF0000845E0F268C9B23846FFF777FB054608F1010898F900100029F3D1EEE775
:2014A0000DF11008F7E718F0010F02D0039B04330393039A131D03931168009102F1080378
:2014C000039353680193042304AADDE90001FFF723FD80B102344FF000081AE0F268C9B2F8
:2014E0003846FFF74CFB054608F1010898F900100029F3D1EEE70DF11008F7E7023408E06F
:20150000F268C9B23846FFF73AFB054600285BD1013494F90010002956D05C293FF405AF21
:201520002529EDD194F901302E2B88D0E6DB782BE4DC582BE2DB583B202BDFD801A252F84A
:2015400023F000BF01140001FD140001FD140001FD140001FD140001FD140001FD14000137
:20156000FD140001FD140001FD140001FD140001FD14000187130001FD140001A7140001A8
:20158000FD140001FD140001FD140001FD140001FD140001FD140001FD140001FD140001BB
:2015A000FD140001FD140001FD140001FD1400015B130001FD140001FD140001FD1400013E
:2015C000FD140001C3130001284608B0BDE8F04303B07047A053000103460268406800214A
:2015E0001961B2F1807F10D31118B1F1A07F0CD8C2F30B0119B9C0F30B0018B970471A61CA
:20160000052070471A6106207047B2F1806F14D310B414180A498C420BD8C2F30A0129B987
:20162000C0F30A0038B11A61062004E01A61052001E01A61042010BC70471A610420704786
:201640000000040403460268406800211961B2F1807F10D31118B1F1A07F0CD812F0070F21
:2016600003D110F0070003D170471A61052070471A6106207047B2F1806F14D310B41418EC
:201680000A498C420BD812F0070F05D110F0070007D01A61062004E01A61052001E01A61F9
:2016A000042010BC70471A61042070470000040400F17F43B3F5800F04D21B0D0B6048602A
:2016C0000020704700F17C43B3F5802F05D25B0C04330B60486000207047052070470000F1
:2016E000F0B583B00446204B1E6980221A611F4DAB6B11209847EB6F11209847D5F8B83008
:201700001120984761680A46A3680B44934204D912F8013B8DF80730F6E7144F7B6B11203B
:2017200098470546BB6F112098470543D7F8B430112098470543BB6B11209847FB6F112021
:201740009847D7F8B83011209847074B1E61012D07D00A2384F8203002209DF8073003B073
:20176000F0BD0020F9E700BF00E0014000048104EFF3108313F0010F01D101207047002001
:201780007047000010B400F17F43B3F5800F72D81C0DC0F31302B2F5402F38D2B3F5001FC2
:2017A0001AD2544A1A40821A02F17F42120C012303FA02F239B1D634A4004F490B591A43D1
:2017C0000A51002092E0D634A4004B490B5923EA02020A51002089E0464A1A40821A02F108
:2017E0007F42120C012303FA02F239B1D834A40041490B591A430A51002077E0D834A4008E
:201800003D490B5923EA02020A5100206EE0394A1A40821AA2F18672520B012000FA02F294
:20182000B3F5001F13D241B1344BD03453F82400024343F82420002058E0304BD03453F832
:20184000240020EA020243F8242000204EE041B12A4BD23453F82400024343F824200020C9
:2018600044E0264BD23453F8240020EA020243F8242000203AE000F17C42B2F5802F34D28C
:201880001F4B1340C31A03F17C435B0B012404FA03F3B2F5003F11D239B1184AD2F820433A
:2018A0002343C2F82033002020E0144AD2F8204324EA0303C2F82033002017E0114A024431
:2018C000B2F5003F14D239B10C4AD2F824432343C2F82433002009E0084AD2F8244324EABA
:2018E0000303C2F82433002000E0052010BC70470020FBE70000F0FF04E0014000E00140F2
:201900000000FEFF0000FEFB7047000070B5044603684668427A9AB9B3F1807F27D31E4484
:20192000B6F1A07F25D8164D1D40002005E0217A2846FFF727FF05F58055AE42F7D802E08A
:20194000012A01D0042070BDB3F1806F13D31E440C4A964211D80C4D1D400020AE42F2D9B7
:20196000217A2846FFF70EFF05F50065F6E70520E9E70520E7E70520E5E70520E3E700BF98
:2019800000F0FFFF0000040400F8FFFF2DE9F04385B00546084600230093019302930393CF
:2019A0000F68D1F804806F60EF604A68AA608A68EA61AB61B7F1A07F0ED24FF480536B61B7
:2019C000FFF70AFE814600285AD12F4B1B6E01209847EF604E461AE04FF400636B61EFE7C7
:2019E00072B625E0284BDB6868469847012801D0032624E04E4622E02EB3002E36D1012182
:201A0000E868FFF7BFFE6A69EB681344EB60E86807EB0803984232D26B6A03B198476946B9
:201A2000E868FFF745FEFFF7A3FE04460128D7D0164B1B68C3F30743FF2BD3D00326012C65
:201A4000DAD162B6D8E7344622460134104B9A4213D80D4BDB6B984748F201039842F3D073
:201A6000094B1B6998470128C9D00326E868A8610121FFF787FEB14602E00326BDE7B14631
:201A8000484605B0BDE8F08300048104000002403F420F002DE9F04F8BB004460846002345
:201AA00003930493059306930793089309930E68D1F804906660E6604A68A2608A68E2612F
:201AC000A361FFF7BFFD0090002874D183463E4B1B6E0120984706F07F0709EB07037F334C
:201AE000DB090193D4F81CA05D4616E072B639E0354BDB6903A89847012801D0032538E084
:201B0000009D36E0002D38D0002D4AD10121E068FFF738FE0BF1010B009F019B9B4545D2C5
:201B200009EB0705802D28BF8025A5EB0708E660C4F81080636A0BB130469847E36803937C
:201B400023699B080493CDF814A001230693002307934644C2447D1BA944FFF709FE07466D
:201B60000128C3D0194B1B68C3F30743FF2BBFD00325012FC6D162B6C4E72F463A4601372A
:201B800042F20F739A421AD80F4BDB6B984748F201039842F2D00C4B1B6A98470128B5D0FF
:201BA0000325E068A0610121FFF7ECFD2046FFF797FD30B9009500980BB0BDE8F08F0325A6
:201BC000A2E703230093F6E70004810400000240024B53F82030D960704700BFC053000170
:201BE00003461E4A52F830101D4A8A5812F4000032D01A4800EBC3035B6813F01E002BD067
:201C000010B5C2F30250014613F0200F0ED002F00702541CE1B113F0020F09D113F0040FA0
:201C200014D113F0080304D0022302E00124F1E700230C4A02EB400250781844252809D0E7
:201C4000C0B201F023FAB0FBF4F010BD0123F0E70020F5E70020F8E7704700BFF4530001F4
:201C600000400240E45300012DE9F84304460678434B03EBC6035D6815F0800F05D115F414
:201C8000807F41D10120BDE8F883012001F0FEF9002871D03A4B53F836803A4F58F80720FA
:201CA000394B134048F807306378002B55D015F020062DD0E678701C5FFA80F906F00706C4
:201CC00015F01E0F04D0A3781B0503F4E0031E4315F4007F04D023791B0703F0E0431E43F7
:201CE00015F0010F01D046F4000648F8076063791BB146F0004648F80760A3785BB915F018
:201D0000100522D0002517E0022001F0BFF9BFE74FF00109D4E715F0020F07D115F0040F25
:201D200011D115F0080002D0022000E00020174A02EB43035D780544252D18BFB9F1000F2C
:201D400005D100200DE00120F1E79946F4E7E8B201F09CF9B0FBF9F003E0002048F80700EF
:201D6000064658F80730B34201D001208BE7084B984203D8002086E7012084E7012082E78C
:201D8000F453000100400240FFFF7F7FE453000100688909F0B403783E4A52F823603E4A4F
:201DA00052F823700C6800239C4630E042F0030201E022F0020291F80CC0BCF1000F01D0AD
:201DC00042F0C00291F80DC0BCF1000F3ED042F0100242F0807C012D3BD046F820C056F8D8
:201DE000202042F0807246F82020CA7B56F8205025F47025120402F47022154346F82050AC
:201E0000012505FA00F024EA00042B44DBB2002C3ED0184624FA03F212F0010FF0D04D686D
:201E20002A0202F4E06242EA0C0291F80AC0BCF1000FBED0002DBED091F80BC0BCF1010F9B
:201E4000B4D022F0010242F00202B4E722F01002BFE70D7A012D07D0ADB97A69012585408E
:201E600022EA05027A61B8E74A7A42B901228240BA607A69012585402A437A61ADE701224A
:201E800082407A60F5E722F4E06242F0807CA4E7F0BC7047E0560001BC56000107283AD0D3
:201EA0000B2806D00C2814D00D2823D04FF0FF307047214BD3F8043213F0807F2DD013F045
:201EC000070F2DD003F00703581EC3B21B48D8407047194BD3F8042212F0007F22D0130AF0
:201EE00012F4E06F21D003F00703581EC3B21348D8407047104BD3F8042212F0806F16D067
:201F0000130C12F4E02F15D003F00703581EC3B20A48D8407047094870474FF0FF30704772
:201F2000064870474FF0FF307047044870474FF0FF3070470148704700300240001BB7000B
:201F40002B4BD3F8003313F0807F3CD004283DD00E2806D00F2814D0102823D04FF0FF3006
:201F60007047234BD3F8043313F0807F30D013F0070F30D003F00703581EC3B21D48D840BA
:201F800070471B4BD3F8042312F0007F25D0130A12F4E06F24D003F00703581EC3B2154811
:201FA000D8407047124BD3F8042312F0806F19D0130C12F4E02F18D003F00703581EC3B225
:201FC0000C48D84070474FF0FF307047094870474FF0FF307047074870474FF0FF30704761
:201FE000044870474FF0FF3070470248704700BF0030024000D8B8052B4BD3F8003113F07D
:20200000807F3CD003283DD0112806D0122814D0132823D04FF0FF307047234BD3F804318F
:2020200013F0807F30D013F0070F30D003F00703581EC3B21D48D84070471B4BD3F8042113
:2020400012F0007F25D0130A12F4E06F24D003F00703581EC3B21548D8407047124BD3F868
:20206000042112F0806F19D0130C12F4E02F18D003F00703581EC3B20C48D84070474FF0FB
:20208000FF307047094870474FF0FF307047074870474FF0FF307047044870474FF0FF3091
:2020A00070470248704700BF0030024000366E01104BD3F8003613F0006F17D00D4BD3F8BA
:2020C000083613F0010F0FD00B480A4AD2F80836C3F304230133D2F80826C2F30842B0FB6E
:2020E000F3F002FB000070470448EEE74FF0FF30704700BF00300240006CDC0200366E01E3
:2021000008B5FFF7D5FFB0F1FF3F09D0054BD3F80836C3F3420301335B00DBB2B0FBF3F082
:2021200008BD00BF00300240154BD3F8003513F0807F22D010B4124BD3F8083513F0010F19
:2021400019D0104B0E4AD2F80805C0F30420411CD2F80845C4F30844D2F80825C2F34202CE
:2021600001325200D2B2B3FBF1F004FB0000B0FBF2F010BC7047044BE4E74FF0FF30704779
:2021800000300240006CDC0200366E0110B50446FFF78EFFB0F1FF3F13D02E4BD3F8083608
:2021A000C3F3011213F0300F00D10122D040052C07D0142C06D0152C18D0162C2BD04FF04D
:2021C000FF3010BD234BD3F8043613F0807F37D0B0F1FF3FF5D013F0070F05D003F00703F8
:2021E000013BDBB2D840ECE70023FBE7194BD3F8043613F0007F26D0B0F1FF3FE1D01A0A91
:2022000013F4E06F05D002F00703013BDBB2D840D7E70023FBE70F4BD3F8043613F0806FA2
:2022200014D0B0F1FF3FCCD01A0C13F4E02F04D002F00703013BDBB200E00023D840C0E7A8
:202240004FF0FF30BDE74FF0FF30BAE74FF0FF30B7E700BF003002403F4BD3F8003513F093
:20226000807F6DD030B402463B4BD3F8083513F0010F25D0394B384CD4F80815C1F3042196
:202280000131D4F80805C0F308400130D4F80845C4F3011514F0300F00D10125B3FBF1F355
:2022A00003FB00F323FA05F0062A07D0172A09D0182A1BD0192A2ED04FF0FF3030BC70477B
:2022C000274BD8E7244BD3F8043513F0807F3AD0B0F1FF3FF2D013F0070F05D003F00703C2
:2022E000013BDBB2D840E9E70023FBE71A4BD3F8043513F0007F29D0B0F1FF3FDED01A0A93
:2023000013F4E06F05D002F00703013BDBB2D840D4E70023FBE7104BD3F8043513F0806FA4
:2023200017D0B0F1FF3FC9D01A0C13F4E02F05D002F00703013BDBB2D840BFE70023FBE7A5
:202340004FF0FF3070474FF0FF30B7E74FF0FF30B4E74FF0FF30B1E700300240006CDC0281
:2023600000366E0138B504461A4B1B69C3F30363012B12D0032B28D0062B04D0022B07D03F
:202380004FF0FF320AE00520FFF700FF024605E00720FFF783FD024600E00F4A0D4D2B6990
:2023A000C3F3014301332869C0F30110411C286900F00300451CB2FBF3F02CB1012C06D0E8
:2023C000B0FBF1F0B0FBF5F038BD044AE6E7B0FBF1F0F9E70030024000366E0100D8B805B9
:2023E00008B5134B1B6AC3F3036213F0706F17D0012A17D0022A08D0032A0AD0042A13D02B
:20240000072A0AD04FF0FF300BE00720FFF746FD07E00420FFF794FD03E04FF4FA4000E026
:20242000002008BD0348FCE74FF40040F9E700BF0030024000366E01074B1B6A13F0005F17
:2024400004D113F0805F03D004487047044870474FF0FF30704700BF00300240001BB700C4
:2024600000366E01F0B40146954BD3F8003613F0807F07D1924BD3F8003613F0006F3FD1B1
:20248000002000E001200C7914B1CB7A012B60D000285FD14B79002B34D18A4D4B7A013314
:2024A000B5FBF3F3884E1E44884FBE422CD88E8906FB0333864EB34294BF00260126854FE8
:2024C000BB4238BF46F0010636BB8A7A02B9012223FA02F5804EB54294BF002601267F4FB1
:2024E000BD4298BF46F00106C6B974B1CA7A01325200B3FBF2F37A4CA34206D9042004E0B7
:202500000120C0E7774DC9E7042018BB8B793BB1013B25FA03F404E00420F6E70420F4E762
:202520000024CB791BB1013B25FA03F300E000230E7A16B1013EF54000E000256A4EB3429E
:2025400098BFB44200F2B780684B9D4202D90420B4E00420002840F0B180594CD4F8043688
:2025600023F0E063C4F80436554BD3F80436C3F30273072B02D10AB1013AF5E7002A00F04E
:202580009C804F4AD2F8003623F40003C2F800364B7A1B0203F4F8538D89554C04EA05446A
:2025A00023438C7A240104F030042343CC7A640004F00E0423434C7904F001042343C2F808
:2025C00008360B791B0103F01003CC78640004F00204234343F08063C2F80036D2F8043605
:2025E000444D1D408B7903F00703CC79240204F4E06423430C7A240404F4E02423432B4361
:20260000C2F80436D2F8003643F00103C2F80036394B01E063B1013B294AD2F8002612F085
:20262000006FF7D0264AD2F8002612F0807FF1D05BB3234AD2F8043643F0E063C2F8043659
:202640004B782BB1D2F8003643F48033C2F800368B7833B11A4AD2F8003643F40033C2F892
:2026600000360B7833B1164AD2F8003643F40003C2F80036214A124BD3F80436C3F302733B
:20268000072B15D0A2B1013AF5E70D4BD3F8002622F01002C3F800260022C3F80026C3F8AD
:2026A0000826C3F80426164AC3F80C26022005E022B9022002E0042000E00220F0BC70474B
:2026C0000030024000366E01807BE1FF80841E0000A02526001C4E0E00A3E1117FD1F008A6
:2026E00000C2EB0B006CDC0280D1F008C06878040000FF01F8F8F8FFE8C70900A086010025
:20270000010020FCF0B401468F4BD3F8003513F0807F07D18C4BD3F8003513F0006F32D1B1
:20272000002000E001200C7914B1CB7A012B53D0002852D14B7943BB844D4B7A0133B5FB13
:20274000F3F3834E1E44834FBE4220D88E8906FB0333814E1E44814FBE4220D88A7A02B990
:20276000012223FA02F57E4E2E447E4FBE4218D874B1CA7A01325200B3FBF2F37A4CA342FB
:2027800006D9042004E00120CDE7784DD5E7042018BB8B793BB1013B25FA03F404E00420BB
:2027A000F6E70420F4E70024CB791BB1013B25FA03F300E000230E7A16B1013EF54000E012
:2027C00000256B4EB34298BFB44200F2B780694B9D4202D90420B4E00420002840F0B180DD
:2027E000594CD4F8043523F0E063C4F80435564BD3F80435C3F30273072B02D10AB1013A19
:20280000F5E7002A00F09C804F4AD2F8003523F40003C2F800354B7A1B0203F4F8538D89CB
:20282000554C04EA054423438C7A240104F030042343CC7A640004F00E0423434C7904F0D2
:2028400001042343C2F808350B791B0103F01003CC78640004F00204234343F08063C2F898
:202860000035D2F80435454D1D408B7903F00703CC79240204F4E06423430C7A240404F47D
:20288000E02423432B43C2F80435D2F8003543F00103C2F800353A4B01E063B1013B2A4A1E
:2028A000D2F8002512F0006FF7D0274AD2F8002512F0807FF1D05BB3234AD2F8043543F01E
:2028C000E063C2F804354B782BB1D2F8003543F48033C2F800358B7833B11B4AD2F8003500
:2028E00043F40033C2F800350B7833B1164AD2F8003543F40003C2F80035224A124BD3F8FC
:202900000435C3F30273072B15D0A2B1013AF5E70D4BD3F8002522F01002C3F80025002264
:20292000C3F80025C3F80825C3F80425164AC3F80C25022005E022B9022002E0042000E0B5
:202940000220F0BC704700BF0030024000366E01807BE1FF80841E0000E4B1F10084D71727
:20296000802E0FF780D1F00800C2EB0B006CDC020068890900B4C4040000FF01F8F8F8FFFB
:20298000E8C70900A0860100010020FC184BD3F8002622F40002C3F80026D3F8002622F0EB
:2029A0001002C3F800260022C3F80026C3F80826104AC3F80C26104B01E063B1013B0C4A0F
:2029C000D2F8002612F0807FF7D1094AD2F8002612F0006FF1D143B1054B0020C3F80006A3
:2029E000C3F80406C3F8040670470220704700BF00300240010020FCA0860100184BD3F81A
:202A0000002522F40002C3F80025D3F8002522F01002C3F800250022C3F80025C3F80825BB
:202A2000104AC3F80C25104B01E063B1013B0C4AD2F8002512F0807FF7D1094AD2F8002574
:202A400012F0006FF1D143B1054B0020C3F80005C3F80405C3F8040570470220704700BF48
:202A600000300240010020FCA08601000F4BD3F8002422F40002C3F80024D3F8002422F05F
:202A80000102C3F800240A4B084AD2F8002412F0807F02D00BB1013BF6E723B10020034BD5
:202AA000C3F8000470470220704700BF0030024080D1F00810B4437973B3013B5F4CDC40A4
:202AC00083795BB3013B5D49D940C37943B3013B5A4A22FA03F35A4A914298BF944200F237
:202AE000A380934200F2A380564BD3F8002122F00102C3F80021D3F8042122F0E062C3F84C
:202B00000421514A4F4BD3F80431C3F30273072B08D13AB1013AF5E70024D1E70021D4E76B
:202B20000023D8E7002A00F08480464AD2F8003123F40003C2F80031017981F001031B06F5
:202B400003F0807343EAC173017A43EA014343F47843C2F80831D2F800313C491940C37849
:202B60005B0003F002030B43C2F80031D2F80431374C1C40437903F007038179090201F438
:202B8000E0610B43C179090401F4E0210B432343C2F80431D2F8003143F00103C2F80031A9
:202BA0002C4B284AD2F8002112F0807F02D10BB1013BF6E75BB3234AD2F8043143F0E063A8
:202BC000C2F8043143782BB1D2F8003143F48033C2F80031837833B11A4AD2F8003143F42A
:202BE0000033C2F80031037833B1164AD2F8003143F40003C2F80031134A124BD3F804311E
:202C0000C3F30273072B0CD05AB1013AF5E70D4B0022C3F80021C3F80821C3F8042102201D
:202C200003E042B1002000E0042010BC70470420FBE70220F9E70220F7E700BF00366E01AB
:202C4000006CDC0200300240A0860100FDFFFCFFF8F8F8FF003E4900184B1869C0F3036032
:202C600001282AD0D3F8083613F0010F01D1062820D0124BD3F8002122F40002C3F80021E8
:202C8000D3F8002122F00102C3F800210C4B0B4AD2F8002112F0807F02D00BB1013BF6E718
:202CA00053B1064B0020C3F80001C3F80401C3F80401704701207047022070470030024089
:202CC000A08601000D4BD3F8002722F40002C3F80027D3F8002722F00102C3F80027084B4D
:202CE000064AD2F8002712F0807F02D00BB1013BF6E70BB10020704702207047003002400D
:202D0000A086010083793BB1013B484A22FA03F3474A934200F28280464AD2F8043323F0C6
:202D2000E063C2F80433444A424BD3F80433C3F30273072B02D10AB1013AF5E7002A6FD0D7
:202D400010B43C4BD3F8002322F40002C3F800230322C3F80823D3F8002338491140C2783F
:202D6000520002F002020A4342F08062C3F80023D3F80423324C1440027902F007024179D8
:202D8000090201F4E0610A438179090401F4E0210A432243C3F80423D3F8002342F00102F1
:202DA000C3F80023244B234AD2F8002312F0807F02D10BB1013BF6E743B11E4AD2F8043366
:202DC00043F0E063C2F804331B4A09E0194B0022C3F80023C3F80423022010BC7047013A18
:202DE000144BD3F80433C3F30273072B01D0002AF5D1BAB1437833B10E4AD2F8003343F4BE
:202E00008033C2F80033037873B10A4AD2F8003343F40003C2F800330020DEE7042070473B
:202E2000022070470220D8E70020D6E700D8B805006CDC0200300240A0860100FDFCFEFF8D
:202E4000F8F8F8FF08B503460F4AD2F8002112F0807F01D14A79AAB10B4AD2F8002312F00C
:202E6000807F02D14879012803D01BB1012B05D0002008BD0846FFF7F5FAFAE70846FFF7B9
:202E800041FCF6E70120F4E70030024008B550B9064B1B69C3F30363062B01D1012008BD0A
:202EA000FFF774FDFBE7FFF7A9FDF8E7003002402A4BD3F8003113F0807F01D101284CD052
:202EC000264BD3F8003313F0807F01D103283BD0224BD3F8003613F0807F01D1062835D004
:202EE0001E4BD3F8003213F0807F01D102282FD01A4B1B69C3F30363984210D817494B6994
:202F000023F07063020602F0706213434B61144B124A1269002A0EDB6BB1013BF8E70F4925
:202F20004B69104A1A40030603F07063134343F013034B61EBE76BB1084B1B69C3F303632E
:202F4000984209D0012070470120704701207047012070470220704700207047003002403C
:202F6000A0860100CCFFFCF038B504464378012B0BD0032B37D0062B03D0022B35D00020EF
:202F800004E00520FFF702F900E0384823790133B0FBF3F0E3780133B0FBF3F3A27801320C
:202FA000B3FBF2F2324D33498B4298BFA84254D8314B9A4253D8314B1A69C2F303626378D3
:202FC00093421FD82D494A6922F070621B0603F0706313434B612A4B284A1269002A06DBC2
:202FE0002BB1013BF8E72748D0E72748CEE7002B37D0224B1B69C3F3036362789A4201D0CA
:2030000001202BE063781B0603F070632279120402F440321343E278120102F0300213436C
:20302000A27802F00302134343F00043134A5361134B00E0013B114A1269002A01DB002B21
:20304000F8D183B10D4B1B69C3F3036362789A4201D0012002E0002000E0042038BD0420B4
:20306000FCE70220FAE70220F8E700BF00366E0100A3E11180D1F008C06878040030024011
:20308000A086010000D8B805001BB70008B5022842D90B2818BF072841D0A0F10C03DBB229
:2030A000012B3CD90E2818BF04283ED0A0F10F03DBB2012B39D9112818BF032838D0A0F146
:2030C0001203DBB2012B33D9142818BF052832D0A0F11503DBB2012B2DD9172818BF062828
:2030E0002CD0A0F11803DBB2012B27D9082834D0092835D00A2824D01A2834D01B2823D063
:20310000A0F11C03DBB2022B21D9A0F11F03DBB2022B1FD9002007E0FFF724F901E0FEF7F6
:20312000BDFEB0F1FF3F20D008BDFEF709FFF8E7FEF762FFF5E7FFF729F8F2E7FFF78CF8C8
:20314000EFE7FFF74DF9ECE7FFF776F9E9E7FEF7D7FFE6E7FEF7E8FFE3E74FF4FA40E3E7D0
:203160004FF40040E0E70248DEE70020DCE700BF001BB7000B4BD3F8003313F0807F01D15A
:203180001F280CD0012303FA00F0064B1A6A22F040421A621A6A10431862002070470120CD
:2031A000704700BF0030024010B582B0174B93E8030002AB03E90300154B1B69C3F30363B4
:2031C000032B12D00320FFF773FE0446012801D0C4B90BE06846FFF795FD04460228F7D038
:2031E0000320FFF765FE0446F2E700240120FFF74DFE0020FFF74AFEFFF72EFDFFF736FC03
:20320000FFF760FD204602B010BD00BF505300010030024070B505460023032B72D81E4632
:203220001902504A545840F63372144202D10133DBB2F2E74C4A0A44D2F8200140F63371E6
:203240000143C2F820116A68537514F0100100D0022114F4006F06D041F0400314F0200FA9
:203260002AD041F0440119B1AB680BB12846984714F0010F46D032023C4B9B5823F07F434B
:203280003B4A925D012A2BD06A681360394A42F8263014F0020F2AD06A6801231375344A31
:2032A00093553202344B9B58C3F38113032B29D8DFE803F02329453714F4807F02D041F07B
:2032C0004801D0E714F4007F02D041F05001CAE714F4806F02D041F06001C4E71946C2E754
:2032E000244A52F8262069681A440A60CEE76A68002313751E4A9355D3E7EB6813B10021C3
:203300002846984770BD6A6836021C4B9B5903F03F035360EB68002BF4D001212846984735
:20332000F0E76A683602164B9B59C3F311039360EB68002BE6D0032128469847E2E769685B
:203340003602104B9A59C2F303320A616A689B59C3F30803D360EB68002BD3D00221284626
:203360009847CFE7203144400030444010314440080000210C000021003144401C3144408E
:20338000143144401831444008B5064B986D9A6D22F003029A65044B1B6813B100F00300DE
:2033A000984708BD00F0074010000021884203D2002340F8043BF9E77047884204D252F847
:2033C000043B40F8043BF8E77047000008B540F20400CEF20800036800F11C000068C3F350
:2033E000424313F0FF0F00D008BD05490548FFF7DDFF054A05490648FFF7DFFFF4E700BFDC
:203400006016002108000021D8580001080000210000002140F20400CEF20800036800F117
:203420001C000068C3F3424313F0FF0F49D1364B364A1A60043340F2AA321A6040F6AA2365
:20344000334A136008321360324B4FF400021A6003F5B52303F2546341F6FF721A60083BB2
:2034600001221A602C4B1B6813F0020FFAD02A4B1B6813F0010FFAD0234B6FF070421A6009
:20348000043340F2FF321A6040F6FF73204A136008321360214B224A1A60224B1B6813F49D
:2034A000006FFAD01F4B42F620121A6008334FF470421A601B4B1B6813F4806FFAD0F746F5
:2034C000704740F20400CEF20800036800F11C000068C3F34243DBB2012BF0D1124B104AEB
:2034E0001A60124B1B6813F4006FFAD00F4B42F620121A6008334FF470421A600B4B1B6871
:2035000013F4806FFAD0DAE720200740AAAAAA0A28200740FC4102404CF0074004200240A4
:20352000821918080020024004304340003043400023072B0FD830B400F00F04C3F1070224
:20354000064D2C578C5400090133072BF4D900230B7230BC704700230B7270478458000102
:203560007846704730B58DB0224B07AC93E8070003C42270002403940494059402228DF824
:2035800012208DF8132003228DF814200B228DF8152001258DF8165040F22B12ADF818201F
:2035A0001969D86801908DF80810FFF7FDFD07A8FFF780FA03A92046FFF744FC01A8FFF725
:2035C000D3FC1F20FFF7D6FD2046FFF75FFD0A4B18602B238DF828308DF8295006238DF8B8
:2035E0002A3008238DF82B300AA8FEF73DFB0DB030BD00BF585300011400002170B586B0E2
:2036000000250395049505954FF40023019303260296154C01A92046FEF7BCFB4FF48023FC
:203620000193029601A92046FEF7B4FB4FF080630193012302938DF80C308DF80D5001A9EE
:203640002046FEF7A7FB4FF00043019301A90748FEF7A0FB4FF48043019301A92046FEF72F
:2036600099FB06B070BD00BF180000210000002100B593B048220021684601F061FE2B20EE
:20368000FEF7AEFA0B4A012313704FF4E133109300238DF830308DF831308DF833300B9026
:2036A0004FF0FF3311936946104601F0E5FB13B05DF804FB2000002108B54FF080610020CA
:2036C000FEF786FA08BD000010B5044601F070FB00B910BD224602490248FDF715FEF8E7DC
:2036E0007058000120000021F0B5BBB0FFF73AFFFFF784FFFFF7BCFF524B186801F060FBEE
:2037000001F0FEFA00F0BEF92BA800F0CDF928A90120FFF70DFF25A92D98FFF709FF22A940
:203720002E98FFF705FF1FA92F98FFF701FF1CA93698FFF7FDFE19A93798FFF7F9FE16A983
:203740003098FFF7F5FE13A93198FFF7F1FE10A93298FFF7EDFE0DA93398FFF7E9FE0AA9D9
:203760003498FFF7E5FE2B9B012B3DD0364A9DF8E410364C2D9BC3F3401302930191009290
:2037800028AB334A33492046FDF7BEFD0DAB029313AB01930AAB009310AB16AA2E49204609
:2037A000FDF7B2FD1FAB009322AB25AA2B492046FDF7AAFD9DF8E2309DF8E1209DF8E31033
:2037C0000391029219AA019200939DF8E0301CAA23492046FDF798FD00F0B4F801F008FB82
:2037E0000646054600271AE01E4AC0E7FFF764FF25461DE0013707A93846FFF799FEFFF758
:20380000AFFE04AE3146FFF793FE174B0193009607AB0F4A15490D48FDF776FD264601F03D
:20382000E7FA044601F07EFA631BB3F57A7FDDD201F0BEFA0028F2D0A31BB3F57A7FEED373
:20384000D8E700BF140000210457000120000021145700011C57000160570001C057000168
:20386000EC5700010C570001785800014C58000130B591B06D4604460FCC0FC50FCC0FC5A9
:203880000FCC0FC594E80F0085E80F00002305934021684600F0EAF811B030BD58B110B55A
:2038A0000446064B0360FFF7E3FF60614021204600F0CAFB10BD4FF0FF30704754534346D3
:2038C00070B5A0B10446402100F0A8FB054688B922680A4B9A4207D166692046FFF7C8FF23
:2038E000864201D1284670BD6FF00705FAE74FF0FF35F7E76FF00305F4E700BF54534346C5
:20390000012819D830B591B004460D464022FF21684601F015FD0A4B009303F1206303F540
:20392000FD33F033019302940395002304936846FFF7B4FF11B030BD4FF0FF30704700BFCF
:203940005453434630B5B1B000F030FC0446694600F072FC18BB0546204600F093FCF0B1DA
:2039600020A8FFF7ADFFB8B9219B1A4A934219D0194A934225D1229BA34225D1009B239A70
:203980009A4224D1134A2192229423930023249320A8FFF783FF0546284631B030BD6FF0DA
:2039A0000405F9E7229BA34202D06FF00705F3E7239A009B9A4202D06FF00705ECE70546D6
:2039C000EAE76FF00705E7E76FF00705E4E76FF00705E1E7464E4F43444E455010B590B022
:2039E0006846FFF76DFFC8B90446019A0C4B9A4202D0204610B010BD00F0D8FB029B834234
:203A0000F7D1049B1BB100F09FFE0446F1E7012304936846FFF742FF0446EAE70024E8E716
:203A2000444E45504FF0FF3070470000C1B130B40D4600240CE040080133DBB2072B06D868
:203A400010F0010FF7D0074981EA5000F4E70134944203D22B5D58400023EFE730BC70470D
:203A6000704700BF2083B8EDC043704738B504460D46FFF7D7FF2A462146FFF7D7FFFFF7DF
:203A8000F3FF38BD08B5FFF7A9FF28B90448FFF71BFE00F08BFB08BD0248FFF715FEF8E73B
:203AA00098580001AC58000100286ED010B5A0B004463C22002101F043FC00F077FB2060BA
:203AC00000F07FFB606000F04DFBA06000F050FBE06000F055FB2061206800F079FB60619B
:203AE000606800F075FBA061206800F07CFBE061606800F078FB20624FF080736362254B59
:203B0000A36200F043FBA0B3012384F8383000F047FB80B3012384F83930002000F0A3FBFB
:203B200058B3012384F83430012000F09CFB30B3012384F83530002000F0A4FB08B3012358
:203B400084F83630012000F09DFBE0B1012384F837306946002000F06FFB08B9009BE36278
:203B60006946012000F068FB90B9009B236320B010BD0023C9E70023CDE70023D2E7002372
:203B8000D7E70023DCE70023E1E74FF0FF3070470020ECE700F01F00144B5B6913F4003F06
:203BA0000BD0BFF34F8FBFF36F8F104B0022C3F85022BFF34F8FBFF36F8F0C4B5B6913F4DE
:203BC000803F12D089B100290FDD00F01F031944BFF34F8F054BC3F85C02203020390029BB
:203BE000F8DCBFF34F8FBFF36F8F704700ED00E000B970476FF00300FBE7013901420CBF31
:203C000001200020704701288CBF00200120704738B50C461546FFF7F6FF38B135B1B4F543
:203C2000001F04D2C4F50011A94202D338BD0020FCE70020FAE700B585B0019002910023DB
:203C40008DF80C308DF80D2001A8FDF75FFEFFF7CFFF05B05DF804FB2DE9F04387B08046E4
:203C60000F4691467AB94FF48055002F36D029464046FFF7C2FFA0B329463846FFF7BDFFFA
:203C800020B1002406E04FF40065EEE76FF0010320E02C44BC4218D204EB08064A46294615
:203CA0003046FFF7C8FF0346A0B901960295002303930493059301A90B48FDF767FEFFF7CD
:203CC00097FF03460028E4D004E039464046FFF763FF0023184607B0BDE8F0836FF0010335
:203CE000F8E76FF00103F5E7480000212DE9F04387B01746B2FA82F25209002908BF0122D2
:203D0000002A3ED1804689460821FFF776FF00283AD008213846FFF770FF08B100251AE02B
:203D20006FF0010329E0002221463046FFF783FF034610BB0196029409EB050303930023AA
:203D40000493059301A91248FDF7A4FEFFF750FF034690B92544BD420AD205EB080606F08B
:203D60007F04C4F180047B1B9C42DCD31C46DAE739464046FFF710FF0023184607B0BDE85A
:203D8000F0834FF0FF33F8E76FF00103F5E700BF480000210A4B1B780BB10020704710B5B9
:203DA000084C28220021204601F0CAFA00232370FDF7AAFD024B01221A70002010BD00BF32
:203DC000700000214800002110B50446FFF71BFFE8B100F0EBF9A0421CD0204600F01DFA22
:203DE0004FF48051FFF709FFB8B14FF480514FF40010FFF702FF98B1FFF7CCFF204600F08A
:203E00000CFA00224FF40011FFF726FF10BD4FF0FF30FBE76FF00200F8E76FF00100F5E772
:203E20006FF00100F2E7F8B507460D4616461C461A46FFF7EDFED0B1E6B100F0B7F9B8424B
:203E40001BD008212846FFF7D8FEC8B108212046FFF7D3FEB8B1384600F0DFF90544FFF757
:203E600099FF224631462846FFF740FFF8BD4FF0FF30FBE74FF0FF30F8E76FF00200F5E799
:203E80006FF00100F2E76FF00100EFE7F8B507460E4615461C461A46FFF7BAFE50B165B183
:203EA000384600F0BAF922468119284601F03AFA0020F8BD4FF0FF30FBE74FF0FF30F8E7DA
:203EC0002DE9F04104460E4690460A460021FFF79FFE00B3721E144B9A421FD8204600F058
:203EE00082F90746FFF79EFD002404E02A463919FFF79CFD2C44B44206D2351BB5F5806FE9
:203F0000F4D94FF48065F1E7FFF7AEFD404508D10020BDE8F0814FF0FF30FAE74FF0FF30E2
:203F2000F7E76FF00500F4E7FFEF1F0038B504460D46FFF768FEB0B11DB900F037F9A04238
:203F400014D0204600F06EF904464FF48051FFF754FE70B1FFF71EFF00224FF4805120464A
:203F6000FFF77AFE38BD4FF0FF30FBE76FF00200F8E76FF00100F5E7F0B5A1B0002940D0E3
:203F800004460E460021FFF7D1FF054610B1284621B0F0BD06F1100770233A461D492046B7
:203FA000FFF741FF05460028F1D180236A461A492046FFF76BFF38BB7022394604A801F079
:203FC000A3F920BB1023324613492046FFF72BFF05460028DBD180236A460F492046FFF7B7
:203FE00055FF054650B980223146684601F08CF920B9204600F046F90028C8D16FF0030546
:20400000C5E74FF0FF35C2E76FF00305BFE76FF00305BCE710F01F0000F01F00B1F5006F7E
:2040200094BF00230123002808BF012333B910B50A46044901F076F9002010BD4FF0FF30CA
:20404000704700BF00F803042DE9F047A6B0B1F5006F94BF00230123002808BF0123002B5B
:2040600050D1884681464FF400612B48FFF7C5FD00284AD0FFF78EFE01224FF400612648C2
:20408000FFF7EAFD8246002838D108F1070727F0070700241BE009EB040101A801F042F931
:2040A0001D4E2644012229463046FFF7C4FD78BB2196229501AB239300232493259321A90D
:2040C0001648FDF7E7FCFFF793FD18BB2C44BC4210D23D1B802D00D980258022FF2101A814
:2040E00001F02EF94445DBD2A8EB04029542D2D22A46D0E739460848FFF74EFD504626B0BB
:20410000BDE8F0874FF0FF3AF8E76FF0010AF5E78246F3E78246F1E700F80304480000213C
:2041200001288CBF002001207047000090B141680368DB43994201D0002070478168074BE2
:20414000994201D000207047C268054B9A4203D00020704700207047012070476666888851
:20416000CEFA60FC014BD3F80005704700E00140024BD3F80C05C0F31300704700E0014060
:20418000014BD3F81805704700E0014008B5FFF7E9FF00F01F000A2814BF0020012008BD5E
:2041A00008B5FFF7DFFFC0F3801008BD08B5FFF7EDFF08B9002008BDFFF7D4FFC0F3401055
:2041C000F9E708B5FFF7F2FF013818BF012008BD18B1012804D0002070474FF080707047E2
:2041E0004FF09070704710B50446FFF799FF08B9002010BDFFF7DAFF012803D054B94FF067
:204200008070F6E7012C02D04FF09070F1E74FF08070EEE74FF09070EBE708B5FFF7E3FF11
:2042200008BD000008B5FFF7F8FF03460148184408BD00BF00F01F0038B505460C46FFF70E
:204240006FFF50B164B12846FFF7ECFF01468022204601F067F8002038BD4FF0FF30FBE787
:204260004FF0FF30F8E700B5A1B06946FFF7E4FF28B96846FFF75AFF21B05DF804FB002040
:20428000FAE7000010B5A0B06946FFF7D5FF10BB049A164B9A4221D1059BB3F5803F1FD120
:2042A0006846FFF743FFB8B1099A114B9A4219D1069BCBB10F4A934201D900200CE00A9C13
:2042C00000230A9380216846FFF7D0FBA04214BF0020012000E0002020B010BD0020FBE779
:2042E0000020F9E70020F7E70020F5E7415443465A5AA5A500F01F00884202D803D30020FF
:204300007047012070474FF0FF3070470378407843EA002070470378427843EA0223827831
:2043200043EA0243C07843EA006070470170090A417070470170C1F307234370C1F30743A3
:204340008370090EC1707047431EDBB2102818BF012B0CD9A0F11103DBB2012B09D91338D2
:20436000C0B2012801D9002070470120704701207047012070472DE9F84F8146884693469E
:204380009A4600242346434520D25F1C19F803600EB3751EA8EB0703AB421ED3AAEB0403DC
:2043A000AB421CD32A4609EB07010BEB040000F0B9FF7B192C44FF2E18BF9845E3D9A2458B
:2043C0000FD900220BF804200134DCE70A9B1C600120BDE8F88F0020FBE70020F9E7002024
:2043E000F7E70020F5E72DE9F04184B004460D4600F5097603AB009340F21623324630F80B
:204400000A1BFFF7B8FF40B1039815280DD84FF4817323814FF0FF3004E04FF48073238115
:204420004FF0FF3004B0BDE8F081A0F1040800F5077020440430FFF76EFF074641463046F6
:20444000FFF714FBB84205D040F2011323814FF0FF30E7E73046FFF759FF45F24F439842FB
:204460000CD194F829324BB994F82662012E0BD040F2031323814FF0FF30D3E74FF480730C
:2044800023814FF0FF30CDE794F82702FFF75CFF88B104F23220FFF739FF0746B0F5007F30
:2044A00003D800F1120343450BD04FF4817323814FF0FF30B6E74FF4827323814FF0FF3088
:2044C000B0E72E7094F827326B7094F82832AB7004F22A20FFF71FFF686004F22E20FFF790
:2044E0001AFFA860AF8104F50D70FFF70FFFE8811FB900232381012094E73A4604F2362180
:2045000005F1100000F00EFFF3E730B108B540F23C42002100F014FF08BD70471346B2FACB
:2045200082F25209002808BF012242BB10B50446A9B1038840F21922934205D85A1C028092
:204540001C44A172002010BD002303804368013343604FF4817303814FF0FF30F3E7028846
:204560000AB90020EFE71946FFF73DFF00232380B0F1FF3FE7D1636801336360E3E74FF0C9
:20458000FF3070472DE9F047B1FA81F56D09002808BF0125002D78D11646984604460F46ED
:2045A000002B73D08389B3F5007F6FD8DFF8E49045F24F414846FFF7B9FE012389F80230EF
:2045C000637889F80330A37889F80430002389F80530616809F10600FFF7ACFEA16809F137
:2045E0000A00FFF7A7FEA18909F10E00FFF79EFEE18909F11000FFF799FEA289BAB9A48986
:2046000004F11209DFF88CA049465046FFF72EFA01460AEB0900FFF78DFE04F1160C012E38
:2046200034D90021397001240846234611E004F1100109F1120000F075FEE0E7B34225D2AE
:2046400003F1010EFA540134E4B2FF2C0CD07346013161450FD20F4A525C002AEED13C5445
:20466000184601330124F3E776450FD93C54023370460124ECE7B34208D23C545A1C00219D
:20468000F954C8F80020012500E000252846BDE8F08700BF7400002110B503460C46B1FAD9
:2046A00081F14909002814BF0846012010BB1988228891421FD19978A27891421BD1596848
:2046C0006268914217D19968A268914213D1D968E26891420FD19A890AB901200BE004F16E
:2046E000100103F1100000F00FFE08B1002002E0012000E0002010BD30B5A1B005460C462C
:204700006946FFF799FDB8B92846FFF7BBFD98B10094E44301940A4B02930A4B0393002340
:204720000A9380216846FFF7A1F90A9069462846FFF722FC21B030BD6FF00400FAE700BF71
:2047400066668888CEFA60FC30B5A1B0FFF72EFD0446FFF736FD0546FFF794FD90B16946CD
:204760002046FFF769FD50B92046FFF78BFD30B1009901312846FFF7BFFF21B030BD6FF09F
:204780000400FAE76FF00400F7E70170090A417070470170C1F307234370C1F30743837014
:2047A000090EC17070470E300E2823D8DFE800F019222516221C2213100D1C0A1F1F080062
:2047C000002070474FF48570704740F20B1070474FF4877070474FF4867070474FF48470F7
:2047E000704740F20F10704740F20D1070474FF48170704740F2FF10704740F2091070470F
:204800002DE9F041ADF5047D05460C4617461E46BDF828824FF404720021684600F090FD6C
:2048200001238DF800306A788DF801208DF802309C4204D903238DF802301B4B1C826B68F1
:2048400001930297ADF80E40ADF80C80B8F1000318BF0123002E08BF002373B9124901F6CA
:204860008C2340F21A2201F507616846FFF78AFE48B90DF5047DBDE8F0814246314604A84C
:2048800000F050FDEAE7084CD4F88C1A04F5076000F06AFB4FF40472294604F5CC6000F052
:2048A00041FD0123E370E4E78C02002130B585B004460F4B01255D701D7042682A445A60B9
:2048C000294602A8FFF761FF29460DF10A00FFF75CFF4FF4007103A8FFF75BFF0823009334
:2048E0006B44A26800212046FFF78AFF05B030BD8C02002130B59FB004460FA8FFF7D4F8B1
:20490000002859D19DF87030002B5ED100259DF871300BB145F002059DF872300BB145F03B
:2049200004059DF873300BB145F008059DF83C308DF80C309DF840308DF80D309DF8743076
:204940008DF80E309DF875308DF80F30149904A8FFF71FFF159905A8FFF71BFF169906A861
:20496000FFF717FF179907A8FFF713FF189908A8FFF70FFF1A9909A8FFF70BFF1B990AA895
:20498000FFF707FF29460BA8FFF703FF11990CA8FFF7FFFE13990DA8FFF7FBFE19990EA8F8
:2049A000FFF7F7FE3023009303ABA26800212046FFF726FF1FB030BD00220092134640F2D1
:2049C000FF112046FFF71CFFF4E701259FE7000010B5A6B004460023039304930593224B0F
:2049E0009B785BB98389802B10D00022009213464FF48171FFF704FF26B010BD0022009267
:204A000013464FF48471FFF7FBFEF5E7802200F1100106A800F086FC06A800F05DFBC8B9FF
:204A2000114B01229A7000F057FC8DF80C00FFF7CFFB014604A8FFF7ACFE0C9905A8FFF77E
:204A4000A8FE0C2300936B44002211462046FFF7D7FED1E7FFF7A7FE0146002200921346EE
:204A60002046FFF7CDFEC7E78C02002130B589B004461C4B9B78DBB103A800F033FCA3686F
:204A8000069A93421DD1A18919B304F1100000F077FB054603A800F025FC2846FFF783FE6A
:204AA000014600230093069A2046FFF7A9FE06E000220092134640F20711FFF7A1FE09B0CB
:204AC00030BD002300934FF483712046FFF798FEF5E7002300934FF481712046FFF790FE59
:204AE000EDE700BF8C02002130B5ABB00446002303930493204B9B7873B125A800F0F2FB4E
:204B0000A368289A934210D0002300934FF483712046FFF775FE06E000220092134640F232
:204B20000711FFF76DFE2BB030BD269D00F076FBB0B905A92846FFF77FFBD8B905990E4B93
:204B400000229A708DF80C5004A8FFF722FE0823009303AB289A01212046FFF751FEE2E7C2
:204B6000FFF721FE014600230093289A2046FFF747FED8E70021E2E78C02002110B582B071
:204B8000044600F095FB074B002199704FF488721A8200910B460A462046FFF731FE02B087
:204BA00010BD00BF8C02002130B58DB0044600230293039304930593069307A800F092FB0C
:204BC000134B9B780BB301238DF808309DF820308DF809300A9903A8FFF7DBFD099904A8B8
:204BE000FFF7D7FD0A4D696805A8FFF7D2FD298A06A8FFF7CEFD1423009302ABA26800218D
:204C00002046FFF7FDFD0DB030BD0023DCE700BF8C02002110B582B00446374BDB78CBB9A6
:204C2000A37823BBE38913BB6378012B29D0324B1B7823B16168304A5268914227D023B3C0
:204C40002D4B5A680023009340F205112046FFF7D7FD14E02949FFF71FFD0028E0D026482E
:204C6000D0F88C1A00F5076000F07EF907E00022009213464FF480712046FFF7C1FD02B00F
:204C800010BD2046FFF712FEF9E70022DAE70132194B5A606378023B122B23D8DFE803F0BD
:204CA0000A222222222222222222222222220E12161A1E002046FFF71DFEE0E72046FFF728
:204CC00087FEDCE72046FFF7D1FED8E72046FFF70BFFD4E72046FFF751FFD0E72046FFF7C2
:204CE00063FFCCE70022009213464FF482712046FFF786FDC3E700BF8C020021EC08002150
:204D000010B5074C4FF429620021204600F018FB04F11400FFF7F9FB0023238210BD00BFDC
:204D20008C02002130B583B0044600F039F91F4BDB6883420FD01D4BD8604FF481721A827D
:204D400009E01A4DAC6005F58A60FFF763FF00F04FF80446A8600DF1070000F0E7F880B12D
:204D6000124800F58A629DF807101430FFF7D6FB0128E6D0B0F1FF3FEDD10C4B9A8B1A82AD
:204D8000E9E70A4B9B7833B1084B9B68E41A41F288339C4201D803B030BD00F089FA034B9D
:204DA00000229A7040F20F121A82F4E78C020021024B587880F00100704700BF8C0200219B
:204DC000084BA3FB00239B09074A00211160013BB3F1807F04D2054A5360916007231360F3
:204DE000704700BFD34D62101C0D002110E000E0014B1868704700BF1C0D0021024A13683E
:204E000001331360704700BF1C0D002119B308460B6803B300224B6893421BD970B40E4BCD
:204E20001B680133C3F30A030C49096899420BD0056809490C68AE5C094D2E550B600132C8
:204E400043689342EBD803E0064A13680133136070BC704770477047200D002140150021A5
:204E6000280D0021240D0021024A136801331360704700BF240D00212DE9F0410D46B1FA0F
:204E800081F14909002814BF0C4601241CB100242046BDE8F08107461B4B186000261B4BB8
:204EA0001E601B4B1E601B4B1E60DFF87C801A4BC8F800301023C8F80430FCF7FBF8012353
:204EC00085F8363085F8376085F838602B72C5F80C80124A2A612B70114B6B60294638464A
:204EE000FCF7F2F810B1084B1E60D1E73846FCF77BF90C4B2022C3F88C21A02183F86513F1
:204F0000DA600124C4E700BF44150021200D002140150021240D0021281500210D4E00017E
:204F2000694E000100E100E038150021034688B10A4A11680A4A126891420DD0074A1168F3
:204F40000848415C197013680133C3F30A03136001207047002070470020704740150021FA
:204F6000200D0021280D002103460C4A106888B1B1FA81F252097BB172B900B583B00093F2
:204F800001916946FCF73EF9B0FA80F0400903B05DF804FB00207047002070474415002114
:204FA000014B1868704700BF240D002108B5034B186808B1FCF744F908BD00BF44150021EB
:204FC000002839D001460269254B9A4236D14369B3F5803F34D10368002B33D0B3F1FF3F08
:204FE00032D04268DB439A4230D182681D4B9A422ED1C2681C4B9A422CD1426A1B4B9A4285
:205000002AD1836953B31A4A934201D90020704730B5A1B080242246684600F083F90A9DB6
:2050200000230A9321466846FEF720FDA84214BF0020012021B030BD00207047002070471F
:20504000002070470020704700207047002070470020704700207047002070470020704798
:205060004154434666668888CEFA60FC5A5AA5A500F01F00174BD3F8943033B308B97F2BC3
:2050800025D910B5A0B9134800F19802D0F88C104068FEF7C8FE50B90E4BD3F89410D3F8AB
:2050A0008C200A44C3F88C200022C3F8942010BDDC1D24F0070403F19800E21AFF21054B21
:2050C000184400F03DF92346DDE7002070470020704700BF48150021284B1B78002B44D1F0
:2050E00030B5A1B00446FFF751F8002840D02046FFF766FF00283ED0FFF758F80546694682
:20510000FFF79AF818B92846FFF7BCF8C0B91B4D4FF48C720021284600F012F9FFF751F833
:2051200068608022214605F1080000F0FBF8FEF779FCC5F89000FEF72DFE50B121B030BD27
:2051400000992068FFF7D8F80028E0DC6FF00600F4E76868FEF738FE18B9084B01221A7078
:20516000ECE76FF000426A60E8E76FF00A0070476FF00B00E2E76FF00400DFE74815002128
:20518000F8B5254B1B78002B3CD007460E460B1E18BF0123002818BF0023B3BB1E4A136AEE
:2051A000D2F888209B1A8B4232D346B31A4DD5F89400C0F18004B44228BF34469830224679
:2051C0003946284400F0AEF822463946D5F89000FEF72CFCC5F89000D5F894302344C5F8EB
:2051E0009430D5F888302344C5F888302744361B0020FFF73FFF03460028D6D000E0002360
:205200001846F8BD4FF0FF33FAE74FF0FF33F7E76FF00103F4E700BF4815002138B5234B04
:205220001B78002B39D0214BD3F888201B6A9A4236D11E4CD4F89000FEF716FC636A9842EC
:2052400031D10120FFF716FF044608B1204638BD164B5A6A196A5868FEF732FE04460028C3
:20526000F4D1124B99685868FEF74AFB04460028ECD10E4B03F108015868FEF77DFE044612
:205280000028E3D1094D4FF48C720021284600F057F86FF000436B60D8E74FF0FF34D5E773
:2052A0006FF00404D2E76FF00504CFE748150021084B1B780BB90020704710B5054C4FF458
:2052C0008C720021204600F03BF86FF000436360002010BD48150021014B5868704700BFD4
:2052E0004815002160B1074A1178017051684160116A8160D2F88810C160D2F88C200261C2
:20530000704700BF4815002130B501390024A24201D1002005E0035D01340D5DAB42F6D0E9
:20532000581B30BD0A44914200F1FF3300D1704710B511F8014B03F8014F9142F9D110BD72
:2053400002440346934200D1704703F8011BF9E70000000001020300000000000001010260
:20536000320000000106010100000000303132333435363738394142434445460000000050
:2053800030313233343536373839616263646566000000003031323334353637383900009E
:2053A000008006400090064000A0064000B00640008046400090464000A0464000B04640FD
:2053C000000000414000004180000041C0000041000100414001004180010041C0010041C1
:2053E0000002004100250111020B030E041F05170614071C200000008102000028000000CE
:20540000810200004C00000081020000600000008102000064000000010300006800000087
:20542000010300006C00000081020000880000000003000098000000010300009C000000B6
:2054400001030000A000000001030000A400000001030000A800000081020000AC00000025
:2054600081020000B000000081020000B400000081020000B800000083020000BC00000046
:2054800029030000C000000000030000C400000001030000C800000001030000CC000000BD
:2054A00001030000D000000001030000D400000001030000DC00000081020000E0000000FD
:2054C00081020000EC000000A3020000F0000000A3020000FC000000010300000001000022
:2054E000010300000C0100000103000050010000A902000060010000800200007001000047
:2055000093020000740100009302000078010000930200007C010000930200008801000043
:20552000850200008C01000085020000900100008502000094010000850200009801000003
:2055400085020000A001000085020000A401000085020000A801000085020000AC01000093
:2055600085020000C001000001030000C401000001030000D0010000A3020000E0010000BF
:2055800081020000FC0100000103000000020000A302000010020000A30200002002000007
:2055A000A302000030020000A302000040020000A3020000D40200000103000008030000A3
:2055C000810200000C0300008102000018030000A30200001C030000A30200002C03000003
:2055E000A30200004C030000000300006003000081020000740300000103000078030000D8
:20560000010300007C03000001030000800300000103000084030000010300008C03000062
:20562000A9020000900300008102000094030000A5020000D0030000A9020000F4030000F6
:2056400093020000F803000093020000FC0300009302000000040000930200001C040000D8
:20566000850200002004000085020000240400008502000028040000850200002C04000066
:20568000850200004004000085020000440400008502000050040000A50200005804000092
:2056A0008102000080040000A302000090040000A3020000A0040000A3020000000000417B
:2056C0004000004180000041C0000041000100414001004180010041C001004100020041BC
:2056E00000700440008004400090044000A0044000B0044000C0044000D0044000E004404A
:2057000000F0044042414E4B302F410042414E4B312F420041505020410000000D0A4643F9
:2057200037333030204F54412025732076657273696F6E3D30782573206163746976653D67
:205740002573204F54415F454E3D2564204F54415F4143544956453D25640D0A00000000F9
:205760004143544956455F504859534943414C3D30782573204143544956455F41434345ED
:2057800053533D3078257320455845435F564D413D30782573205441524745545F504859AA
:2057A000534943414C3D30782573205441524745545F4143434553533D307825730D0A0074
:2057C000464D435F4354524C3D30782573205645525F4C4F433D30782573204143545F566E
:2057E00045523D307825730D0A000000534C4F545F412076657273696F6E3D3078257320D9
:2058000068775F76616C69643D256420696D6167655F76616C69643D256420534C4F545F5B
:20582000422076657273696F6E3D307825732068775F76616C69643D256420696D6167652C
:205840005F76616C69643D25640D0A0048454152544245415420257320636F756E743D30FE
:205860007825732050433D30782573204C45443D25730D0A000000004C4544312F505441ED
:205880003236000030313233343536373839414243444546000000004F544120626F6F7446
:2058A00020636865636B204F4B0000004F544120626F6F7420636865636B207265717565F8
:2058C0007374656420726F6C6C6261636B206F72206661696C656400030000000000000025
:02000004011FDA
:20F0000001000000FEFFFFFF66668888CEFA60FC415443460000010000F01F00C09DA310B6
:20F02000000000005A5AA5A5CBDF9A74FFFFFFFFFFFFFFFFFFFFFFFFFFFFFFFFFFFFFFFF2E
:020000040120D9
:20000000000001203D030001A9030001A9030001A9030001A9030001A9030001000000001D
:20002000000000000000000000000000A9030001A903000100000000A9030001F94D000172
:20004000A9030001A9030001A9030001A9030001A9030001A9030001A9030001A903000138
:20006000A9030001A9030001A9030001A9030001A9030001A9030001A9030001A903000118
:20008000A9030001A9030001A9030001A9030001A9030001A9030001A9030001A9030001F8
:2000A000A9030001A9030001A9030001A9030001A9030001A9030001A9030001A9030001D8
:2000C000A9030001A9030001A9030001A9030001A9030001A9030001A9030001A9030001B8
:2000E000A903000189330001A9030001A9030001A9030001A9030001A9030001A903000188
:20010000A9030001A9030001A9030001A9030001A9030001A9030001A9030001A903000177
:20012000A9030001A9030001A9030001A9030001A9030001A9030001A9030001A903000157
:20014000A9030001A9030001A9030001A9030001A9030001A9030001A9030001A903000137
:20016000A9030001A9030001A9030001A9030001A9030001A9030001A9030001A903000117
:20018000A9030001A9030001A9030001A9030001A9030001A9030001A9030001A9030001F7
:2001A000A9030001A9030001A9030001A9030001A9030001A9030001A9030001A9030001D7
:2001C000A9030001A9030001A9030001A9030001A9030001A94F0001A9030001A90300016B
:2001E000A9030001A9030001A9030001A9030001A9030001A9030001A9030001A903000197
:20020000A9030001A9030001A9030001A9030001A9030001A9030001A9030001A903000176
:20022000A9030001A9030001A9030001A9030001A9030001A9030001A9030001A903000156
:20024000A9030001A903000115320001A9030001A9030001A9030001A9030001A90300019B
:20026000A9030001A9030001A9030001A9030001A9030001A9030001A9030001A903000116
:20028000A9030001A9030001A9030001A9030001A9030001A9030001A9030001A9030001F6
:2002A000A9030001A9030001A9030001A9030001A9030001A9030001A9030001A9030001D6
:2002C000A9030001A9030001A9030001A9030001A9030001A9030001A9030001A9030001B6
:2002E000A9030001A9030001A9030001A9030001A9030001A9030001A9030001A903000196
:20030000A9030001A9030001A9030001A9030001A9030001A9030001A9030001A903000175
:20032000A9030001A9030001A9030001A9030001A9030001A9030001FFFFFFFF72B64FF04C
:2003400000014FF000024FF000034FF000044FF000054FF000064FF00007B846B946BA460A
:20036000BB46BC460A480B4901600B4885460B4A094C002301E013600432A242FBD30848FC
:2003800080470848804762B603F0AEF9FEE7000008ED00E0000000010000012000FC0020D5
:2003A00015340001CD330001FFF7FEBF70B54FF0FF0C4CF4E06C1CEA11541DBF1CEA13558F
:2003C00094EA0C0F95EA0C0F00F0DEF82C4481EA030621EA4C5123EA4C5350EA013518BFA5
:2003E00052EA033541F4801143F4801338D0A0FB02CE4FF00005E1FB02E506F00042E0FB6C
:2004000003E54FF00006E1FB03569CF0000F18BF4EF0010EA4F1FF04B6F5007F64F54074EC
:2004200004D25FEA4E0E6D4146EB060642EAC62141EA55514FEAC52040EA5E504FEACE2E47
:20044000B4F1FD0C88BFBCF5E06F1ED8BEF1004F08BF5FEA500E50F1000041EB045170BD56
:2004600006F0004646EA010140EA020081EA0301B4EB5C04C2BFD4EB0C0541EA045170BD76
:2004800041F480114FF0000E013C00F3AB8014F1360FDEBF002001F0004170BDC4F10004CF
:2004A000203C35DA0C341BDC04F11404C4F1200500FA05F320FA04F001FA05F240EA020095
:2004C00001F0004221F0004110EBD37021FA04F642EB06015EEA430E08BF20EAD37070BD36
:2004E000C4F10C04C4F1200500FA04F320FA05F001FA04F240EA020001F0004110EBD370D0
:2005000041F100015EEA430E08BF20EAD37070BDC4F1200500FA05F24EEA020E20FA04F3AA
:2005200001FA05F243EA020321FA04F001F0004121FA04F220EA020000EBD3705EEA430E72
:2005400008BF20EAD37070BD94F0000F0FD101F00046400041EB010111F4801F08BF013C9A
:20056000F7D041EA060195F0000F18BF704703F00046520043EB030313F4801F08BF013DF6
:20058000F7D043EA0603704794EA0C0F0CEA135518BF95EA0C0F0CD050EA410618BF52EACF
:2005A0004306D1D181EA030101F000414FF0000070BD50EA410606BF1046194652EA4306C3
:2005C00019D094EA0C0F02D150EA013613D195EA0C0F05D152EA03361CBF104619460AD121
:2005E00081EA030101F0004141F0FE4141F470014FF0000070BD41F0FE4141F4780170BD8D
:2006000081F0004102E000BF83F0004330B54FEA41044FEA430594EA050F08BF90EA020F09
:200620001FBF54EA000C55EA020C7FEA645C7FEA655C00F0E2804FEA5454D4EB5555B8BFDF
:200640006D420CDD2C4480EA020281EA030382EA000083EA010180EA020281EA0303362D96
:2006600088BF30BD11F0004F4FEA01314FF4801C4CEA113102D0404261EB410113F0004F00
:200680004FEA03334CEA133302D0524263EB430394EA050F00F0A780A4F10104D5F1200E3E
:2006A0000DDB02FA0EFC22FA05F2801841F1000103FA0EF2801843FA05F359410EE0A5F186
:2006C00020050EF1200E012A03FA0EFC28BF4CF0020C43FA05F3C01851EBE37101F0004592
:2006E00007D54FF0000EDCF1000C7EEB00006EEB0101B1F5801F1BD3B1F5001F0CD349080C
:200700005FEA30004FEA3C0C04F101044FEA445212F5800F80F09A80BCF1004F08BF5FEAEA
:20072000500C50F1000041EB045141EA050130BD5FEA4C0C404141EB0101013C28BFB1F563
:20074000801FE9D291F0000F04BF01460020B1FA81F308BF2033A3F10B03B3F120020CDAFE
:200760000C3208DD02F1140CC2F10C0201FA0CF021FA02F10CE002F11402D8BFC2F1200C12
:2007800001FA02F120FA0CFCDCBF41EA0C019040E41AA2BF01EB0451294330BD6FEA04044C
:2007A0001F3C1CDA0C340EDC04F11404C4F1200220FA04F001FA02F340EA030021FA04F39D
:2007C00045EA030130BDC4F10C04C4F1200220FA02F001FA04F340EA0300294630BD21FABB
:2007E00004F0294630BD94F0000F83F4801306BF81F480110134013D4EE77FEA645C18BF99
:200800007FEA655C29D094EA050F08BF90EA020F05D054EA000C04BF1946104630BD91EAD2
:20082000030F1EBF0021002030BD5FEA545C05D14000494128BF41F0004130BD14F580042F
:200840003CBF01F5801130BD01F0004545F0FE4141F470014FF0000030BD7FEA645C1ABFAB
:20086000194610467FEA655C1CBF0B46024650EA013406BF52EA033591EA030F41F400219A
:2008800030BD00BF90F0000F04BF0021704730B54FF4806404F132044FF000054FF00001C7
:2008A00050E700BF90F0000F04BF0021704730B54FF4806404F1320410F0004548BF404213
:2008C0004FF000013EE700BF42004FEAE2014FEA31014FEA02701FBF12F07F4393F07F4F8D
:2008E00081F06051704732F07F4208BF704793F07F4F04BF41F40021704730B54FF46074A1
:2009000001F0004521F000411CE700BF50EA010208BF704730B54FF000050AE050EA010282
:2009200008BF704730B511F0004502D5404261EB41014FF4806404F132045FEA915C3FF46C
:20094000D8AE4FF003025FEADC0C18BF03325FEADC0C18BF033202EBDC02C2F1200300FAB8
:2009600003FC20FA02F001FA03FE40EA0E0021FA02F11444BDE600BF4FF0FF3C06E000BF51
:200980004FF0010C02E000BF4FF0010C4DF804CD4FEA410C7FEA6C5C4FEA430C18BF7FEA89
:2009A0006C5C1BD001B050EA410C0CBF52EA430C91EA030F02BF90EA020F0020704710F145
:2009C000000F91EA030F58BF994208BF90422CBFD8176FEAE37040F0010070474FEA410CFC
:2009E0007FEA6C5C02D150EA013C07D14FEA430C7FEA6C5CD6D152EA033CD3D05DF8040BC2
:200A0000704700BF8446104662468C461946634600E000BF01B5FFF7B7FF002848BF10F18D
:200A2000000F01BD4DF808EDFFF7F4FF0CBF012000205DF808FB00BF4DF808EDFFF7EAFF8A
:200A400034BF012000205DF808FB00BF4DF808EDFFF7E0FF94BF012000205DF808FB00BF91
:200A60004DF808EDFFF7CEFF94BF012000205DF808FB00BF4DF808EDFFF7C4FF34BF0120C7
:200A800000205DF808FB00BF4FEA410212F5001215D211D56FF47873B3EB625212D94FEAF9
:200AA000C12343F0004343EA505311F0004F23FA02F018BF404270474FF00000704750EA6D
:200AC000013005D111F0004008BF6FF0004070474FF00000704700BF4A0011D212F50012B6
:200AE00011D20DD56FF47873B3EB62520ED44FEAC12343F0004343EA505323FA02F0704786
:200B00004FF00000704750EA013002D14FF0FF3070474FF000007047F0B58C469646C0F380
:200B20008F07BB00B0EB870F0BD21A1A0ABB15460421AA4221D3CEF80070CCF800100020D3
:200B4000F0BDC21AF2E7B0FBF3F403FB1404AC4202D2374619462546002DEAD00133202B1C
:200B6000E7D8B0FBF3F606FB03F4A042EBD2241AEDE7154604210523F1E70220E0E7436964
:200B800013F400031ED010B4C161836943F4002383610024234694422CBF00210121002B91
:200BA00018BF002121B1436903F480030134F2E7826922F40022826113B1002010BC7047CA
:200BC0000220FBE70BB1002070470220704700002D4B53F8202000294CD00B460968002972
:200BE0004AD0506910F4000F48D05868002847D010B4946A14F0800F27D0D46A04F00F0467
:200C0000C4F11004A0420FD200211AE018680078D0611868013018605868013858600131F8
:200C2000C9B28C42F2D818E00021FAE718680078D061186801301860586801385860013172
:200C4000C9B258688142F1D307E00978D1611968013119605968013959605B6893B993694D
:200C600023F400039361936943F480039361002010BC704704207047042070470420704788
:200C8000002070470020F3E79C530001074B53F820305A6912F4800F05D09A6922F49002CE
:200CA0009A61002070470420704700BF9C530001084B53F82020536913F4801F07D0516907
:200CC000054B0B4043F480135361002070470420704700BF9C5300010000E03F184B53F8CD
:200CE000200031B30A460B682BB3416911F4001F23D000215160816A11F0080F12D030B4F3
:200D0000C56AC5F305650023AB4208D2047F1168CC545168013151600133DBB2F4E7002024
:200D200030BC7047017F19705368013353600020704704207047042070470420704700BF3E
:200D40009C530001154B53F82030586910F4002000D001205A6912F4802F01D040F0020057
:200D60005A6912F4003F01D040F004005A6912F4803F01D040F008005A6912F0080F01D028
:200D800040F010005A6912F0040F01D040F020005969034A0A4002435A6170479C5300011A
:200DA0000000E03F10B402460078254B53F82030087898B1986940F0706098614868506161
:200DC000087A80B1C86810B3986940F400109861C868506008699061002009E0986920F0D3
:200DE00070609861ECE7986920F40010986100200C7D8CB18C6964B19C6944F400049C610B
:200E00008C699460CC69D4610C6A146208E00420EEE740F0040003E09C6924F400049C617D
:200E200091F824403CB19C6944F480149C618B6A536210BC70479A6922F480129A61F8E758
:200E40009C530001F0B58FB005468E4616469C4609AC2D4F0FCF0FC43B68237004AC2B4F1F
:200E60000FCF0FC43B682370294B01AC93E8070003C424F8022B120C2270BEF1000F41D059
:200E80007446EB0F0A2E14BF002303F00103DBB168422D238EF8003001250DF1040C2B4698
:200EA000B0FBF6F206FB120719460133DBB21CF907706754014610468E42F1D99C460022E3
:200EC000E2542F46294616E0BCF1000F04D00DF1240C28460025E2E70DF1100CF9E7B1EB52
:200EE000620F0CD26056ACEB01023A44013AA6566654A05401315A19F1D50132EFE700205C
:200F00000FB0F0BD0120FBE7685300017C53000190530001000000002DE9F04F85B08046A2
:200F2000894615469A46604A01AB07CA03C323F8022B120C1A70002D00F0AA802C4656A318
:200F4000D3E9002340464946FFF776FDB8B340464946FFF799FDFFF7A5FC42464B46FFF782
:200F600053FB06460F4642464B4600200021FFF74BFBFFF7B1FD05462D23237001210B46A7
:200F80004A4AA2FB0502D208104602EB8202A5EB420298460133DBB20DF1100C624412F93A
:200FA0000C2C04F808202A460546092AE8D89E4604EB03090022E2548C4608461EE040464C
:200FC0004946FFF789FD0546FFF75CFC02460B4640464946FFF718FB06460F460021CEE73F
:200FE000B0EB620F0ED22556AEEB00026244013A14F902B004F800B0A55401305A18EFD543
